{
    "_format": "hh-sol-artifact-1",
    "contractName": "Campaign",
    "sourceName": "contracts/Campaign.sol",
    "abi": [
        {
            "inputs": [
                {
                    "internalType": "uint256",
                    "name": "_minimum",
                    "type": "uint256"
                },
                {
                    "internalType": "string",
                    "name": "_id",
                    "type": "string"
                },
                {
                    "internalType": "uint256",
                    "name": "_acceptThreshold",
                    "type": "uint256"
                },
                {
                    "internalType": "address",
                    "name": "creator",
                    "type": "address"
                }
            ],
            "stateMutability": "nonpayable",
            "type": "constructor"
        },
        {
            "stateMutability": "payable",
            "type": "fallback"
        },
        {
            "inputs": [],
            "name": "acceptThreshold",
            "outputs": [
                {
                    "internalType": "uint256",
                    "name": "",
                    "type": "uint256"
                }
            ],
            "stateMutability": "view",
            "type": "function"
        },
        {
            "inputs": [
                {
                    "internalType": "uint256",
                    "name": "index",
                    "type": "uint256"
                }
            ],
            "name": "approveRequest",
            "outputs": [],
            "stateMutability": "nonpayable",
            "type": "function"
        },
        {
            "inputs": [
                {
                    "internalType": "address",
                    "name": "",
                    "type": "address"
                }
            ],
            "name": "approvers",
            "outputs": [
                {
                    "internalType": "bool",
                    "name": "",
                    "type": "bool"
                }
            ],
            "stateMutability": "view",
            "type": "function"
        },
        {
            "inputs": [],
            "name": "approversCount",
            "outputs": [
                {
                    "internalType": "uint256",
                    "name": "",
                    "type": "uint256"
                }
            ],
            "stateMutability": "view",
            "type": "function"
        },
        {
            "inputs": [
                {
                    "internalType": "address",
                    "name": "",
                    "type": "address"
                }
            ],
            "name": "balance",
            "outputs": [
                {
                    "internalType": "uint256",
                    "name": "",
                    "type": "uint256"
                }
            ],
            "stateMutability": "view",
            "type": "function"
        },
        {
            "inputs": [],
            "name": "contribute",
            "outputs": [],
            "stateMutability": "payable",
            "type": "function"
        },
        {
            "inputs": [
                {
                    "internalType": "string",
                    "name": "description",
                    "type": "string"
                },
                {
                    "internalType": "uint256",
                    "name": "value",
                    "type": "uint256"
                },
                {
                    "internalType": "address payable",
                    "name": "recipient",
                    "type": "address"
                }
            ],
            "name": "createRequest",
            "outputs": [],
            "stateMutability": "nonpayable",
            "type": "function"
        },
        {
            "inputs": [
                {
                    "internalType": "uint256",
                    "name": "index",
                    "type": "uint256"
                }
            ],
            "name": "finalizeRequest",
            "outputs": [],
            "stateMutability": "nonpayable",
            "type": "function"
        },
        {
            "inputs": [],
            "name": "getRequestsCount",
            "outputs": [
                {
                    "internalType": "uint256",
                    "name": "",
                    "type": "uint256"
                }
            ],
            "stateMutability": "view",
            "type": "function"
        },
        {
            "inputs": [],
            "name": "getSummary",
            "outputs": [
                {
                    "internalType": "uint256",
                    "name": "",
                    "type": "uint256"
                },
                {
                    "internalType": "uint256",
                    "name": "",
                    "type": "uint256"
                },
                {
                    "internalType": "uint256",
                    "name": "",
                    "type": "uint256"
                },
                {
                    "internalType": "uint256",
                    "name": "",
                    "type": "uint256"
                },
                {
                    "internalType": "address",
                    "name": "",
                    "type": "address"
                },
                {
                    "internalType": "uint256",
                    "name": "",
                    "type": "uint256"
                }
            ],
            "stateMutability": "view",
            "type": "function"
        },
        {
            "inputs": [],
            "name": "id",
            "outputs": [
                {
                    "internalType": "string",
                    "name": "",
                    "type": "string"
                }
            ],
            "stateMutability": "view",
            "type": "function"
        },
        {
            "inputs": [],
            "name": "manager",
            "outputs": [
                {
                    "internalType": "address",
                    "name": "",
                    "type": "address"
                }
            ],
            "stateMutability": "view",
            "type": "function"
        },
        {
            "inputs": [],
            "name": "minimumContribution",
            "outputs": [
                {
                    "internalType": "uint256",
                    "name": "",
                    "type": "uint256"
                }
            ],
            "stateMutability": "view",
            "type": "function"
        },
        {
            "inputs": [
                {
                    "internalType": "uint256",
                    "name": "",
                    "type": "uint256"
                }
            ],
            "name": "requests",
            "outputs": [
                {
                    "internalType": "string",
                    "name": "description",
                    "type": "string"
                },
                {
                    "internalType": "uint256",
                    "name": "value",
                    "type": "uint256"
                },
                {
                    "internalType": "address payable",
                    "name": "recipient",
                    "type": "address"
                },
                {
                    "internalType": "bool",
                    "name": "complete",
                    "type": "bool"
                },
                {
                    "internalType": "uint256",
                    "name": "approvalCount",
                    "type": "uint256"
                },
                {
                    "internalType": "uint256",
                    "name": "approvalBalances",
                    "type": "uint256"
                }
            ],
            "stateMutability": "view",
            "type": "function"
        },
        {
            "stateMutability": "payable",
            "type": "receive"
        }
    ],
    "bytecode": "0x60806040523480156200001157600080fd5b5060405162001c9538038062001c958339818101604052810190620000379190620001f9565b80600160006101000a81548173ffffffffffffffffffffffffffffffffffffffff021916908373ffffffffffffffffffffffffffffffffffffffff16021790555083600281905550826000908051906020019062000097929190620000a9565b50816005819055505050505062000421565b828054620000b79062000359565b90600052602060002090601f016020900481019282620000db576000855562000127565b82601f10620000f657805160ff191683800117855562000127565b8280016001018555821562000127579182015b828111156200012657825182559160200191906001019062000109565b5b5090506200013691906200013a565b5090565b5b80821115620001555760008160009055506001016200013b565b5090565b6000620001706200016a84620002b2565b6200027e565b9050828152602081018484840111156200018957600080fd5b6200019684828562000323565b509392505050565b600081519050620001af81620003ed565b92915050565b600082601f830112620001c757600080fd5b8151620001d984826020860162000159565b91505092915050565b600081519050620001f38162000407565b92915050565b600080600080608085870312156200021057600080fd5b60006200022087828801620001e2565b945050602085015167ffffffffffffffff8111156200023e57600080fd5b6200024c87828801620001b5565b93505060406200025f87828801620001e2565b925050606062000272878288016200019e565b91505092959194509250565b6000604051905081810181811067ffffffffffffffff82111715620002a857620002a7620003be565b5b8060405250919050565b600067ffffffffffffffff821115620002d057620002cf620003be565b5b601f19601f8301169050602081019050919050565b6000620002f282620002f9565b9050919050565b600073ffffffffffffffffffffffffffffffffffffffff82169050919050565b6000819050919050565b60005b838110156200034357808201518184015260208101905062000326565b8381111562000353576000848401525b50505050565b600060028204905060018216806200037257607f821691505b602082108114156200038957620003886200038f565b5b50919050565b7f4e487b7100000000000000000000000000000000000000000000000000000000600052602260045260246000fd5b7f4e487b7100000000000000000000000000000000000000000000000000000000600052604160045260246000fd5b620003f881620002e5565b81146200040457600080fd5b50565b620004128162000319565b81146200041e57600080fd5b50565b61186480620004316000396000f3fe6080604052600436106100e15760003560e01c80638a9cfd551161007f578063af640d0f11610059578063af640d0f146102c2578063d7bb99ba146102ed578063d7d1bbdb146102f7578063e3d670d714610320576100e8565b80638a9cfd5514610243578063937e09b11461026c578063ae39448314610297576100e8565b80634051ddac116100bb5780634051ddac1461017b578063481c6a75146101ab57806381d12c58146101d657806382fde09314610218576100e8565b806303441006146100ea5780630a144391146101135780633410452a14610150576100e8565b366100e857005b005b3480156100f657600080fd5b50610111600480360381019061010c9190610ee9565b61035d565b005b34801561011f57600080fd5b5061013a60048036038101906101359190610e59565b6105b2565b604051610147919061129b565b60405180910390f35b34801561015c57600080fd5b506101656105d2565b6040516101729190611420565b60405180910390f35b34801561018757600080fd5b506101906105dc565b6040516101a29695949392919061143b565b60405180910390f35b3480156101b757600080fd5b506101c0610629565b6040516101cd9190611280565b60405180910390f35b3480156101e257600080fd5b506101fd60048036038101906101f89190610ee9565b61064f565b60405161020f969594939291906112d8565b60405180910390f35b34801561022457600080fd5b5061022d610740565b60405161023a9190611420565b60405180910390f35b34801561024f57600080fd5b5061026a60048036038101906102659190610e82565b610746565b005b34801561027857600080fd5b5061028161089f565b60405161028e9190611420565b60405180910390f35b3480156102a357600080fd5b506102ac6108a5565b6040516102b99190611420565b60405180910390f35b3480156102ce57600080fd5b506102d76108ab565b6040516102e491906112b6565b60405180910390f35b6102f5610939565b005b34801561030357600080fd5b5061031e60048036038101906103199190610ee9565b610af3565b005b34801561032c57600080fd5b5061034760048036038101906103429190610e59565b610cf7565b6040516103549190611420565b60405180910390f35b600160009054906101000a900473ffffffffffffffffffffffffffffffffffffffff1673ffffffffffffffffffffffffffffffffffffffff163373ffffffffffffffffffffffffffffffffffffffff16146103ed576040517f08c379a00000000000000000000000000000000000000000000000000000000081526004016103e4906113e0565b60405180910390fd5b6000600860008381526020019081526020016000209050600554476064836004015461041991906115ab565b610423919061157a565b1015610464576040517f08c379a000000000000000000000000000000000000000000000000000000000815260040161045b90611340565b60405180910390fd5b600015158160020160149054906101000a900460ff161515146104bc576040517f08c379a00000000000000000000000000000000000000000000000000000000081526004016104b3906113a0565b60405180910390fd5b60008160020160009054906101000a900473ffffffffffffffffffffffffffffffffffffffff1673ffffffffffffffffffffffffffffffffffffffff16826001015460405161050a9061126b565b60006040518083038185875af1925050503d8060008114610547576040519150601f19603f3d011682016040523d82523d6000602084013e61054c565b606091505b5050905080610590576040517f08c379a000000000000000000000000000000000000000000000000000000000815260040161058790611360565b60405180910390fd5b60018260020160146101000a81548160ff021916908315150217905550505050565b60036020528060005260406000206000915054906101000a900460ff1681565b6000600754905090565b60008060008060008060025447600754600454600160009054906101000a900473ffffffffffffffffffffffffffffffffffffffff16600554955095509550955095509550909192939495565b600160009054906101000a900473ffffffffffffffffffffffffffffffffffffffff1681565b6008602052806000526040600020600091509050806000018054610672906116a1565b80601f016020809104026020016040519081016040528092919081815260200182805461069e906116a1565b80156106eb5780601f106106c0576101008083540402835291602001916106eb565b820191906000526020600020905b8154815290600101906020018083116106ce57829003601f168201915b5050505050908060010154908060020160009054906101000a900473ffffffffffffffffffffffffffffffffffffffff16908060020160149054906101000a900460ff16908060030154908060040154905086565b60045481565b600160009054906101000a900473ffffffffffffffffffffffffffffffffffffffff1673ffffffffffffffffffffffffffffffffffffffff163373ffffffffffffffffffffffffffffffffffffffff16146107d6576040517f08c379a00000000000000000000000000000000000000000000000000000000081526004016107cd906113e0565b60405180910390fd5b600060086000600760008154809291906107ef906116d3565b91905055815260200190815260200160002090508381600001908051906020019061081b929190610d0f565b50828160010181905550818160020160006101000a81548173ffffffffffffffffffffffffffffffffffffffff021916908373ffffffffffffffffffffffffffffffffffffffff16021790555060008160020160146101000a81548160ff021916908315150217905550600081600301819055506000816004018190555050505050565b60025481565b60055481565b600080546108b8906116a1565b80601f01602080910402602001604051908101604052809291908181526020018280546108e4906116a1565b80156109315780601f1061090657610100808354040283529160200191610931565b820191906000526020600020905b81548152906001019060200180831161091457829003601f168201915b505050505081565b60025434101561097e576040517f08c379a000000000000000000000000000000000000000000000000000000000815260040161097590611380565b60405180910390fd5b6001600360003373ffffffffffffffffffffffffffffffffffffffff1673ffffffffffffffffffffffffffffffffffffffff16815260200190815260200160002060006101000a81548160ff021916908315150217905550600460008154809291906109e9906116d3565b919050555034600660003373ffffffffffffffffffffffffffffffffffffffff1673ffffffffffffffffffffffffffffffffffffffff1681526020019081526020016000206000828254610a3d9190611524565b9250508190555060003073ffffffffffffffffffffffffffffffffffffffff1634604051610a6a9061126b565b60006040518083038185875af1925050503d8060008114610aa7576040519150601f19603f3d011682016040523d82523d6000602084013e610aac565b606091505b5050905080610af0576040517f08c379a0000000000000000000000000000000000000000000000000000000008152600401610ae790611360565b60405180910390fd5b50565b6000600860008381526020019081526020016000209050600360003373ffffffffffffffffffffffffffffffffffffffff1673ffffffffffffffffffffffffffffffffffffffff16815260200190815260200160002060009054906101000a900460ff16610b96576040517f08c379a0000000000000000000000000000000000000000000000000000000008152600401610b8d90611400565b60405180910390fd5b8060050160003373ffffffffffffffffffffffffffffffffffffffff1673ffffffffffffffffffffffffffffffffffffffff16815260200190815260200160002060009054906101000a900460ff1615610c25576040517f08c379a0000000000000000000000000000000000000000000000000000000008152600401610c1c906113c0565b60405180910390fd5b60018160050160003373ffffffffffffffffffffffffffffffffffffffff1673ffffffffffffffffffffffffffffffffffffffff16815260200190815260200160002060006101000a81548160ff021916908315150217905550806003016000815480929190610c94906116d3565b9190505550600660003373ffffffffffffffffffffffffffffffffffffffff1673ffffffffffffffffffffffffffffffffffffffff16815260200190815260200160002054816004016000828254610cec9190611524565b925050819055505050565b60066020528060005260406000206000915090505481565b828054610d1b906116a1565b90600052602060002090601f016020900481019282610d3d5760008555610d84565b82601f10610d5657805160ff1916838001178555610d84565b82800160010185558215610d84579182015b82811115610d83578251825591602001919060010190610d68565b5b509050610d919190610d95565b5090565b5b80821115610dae576000816000905550600101610d96565b5090565b6000610dc5610dc0846114cd565b61149c565b905082815260208101848484011115610ddd57600080fd5b610de884828561165f565b509392505050565b600081359050610dff816117e9565b92915050565b600081359050610e1481611800565b92915050565b600082601f830112610e2b57600080fd5b8135610e3b848260208601610db2565b91505092915050565b600081359050610e5381611817565b92915050565b600060208284031215610e6b57600080fd5b6000610e7984828501610df0565b91505092915050565b600080600060608486031215610e9757600080fd5b600084013567ffffffffffffffff811115610eb157600080fd5b610ebd86828701610e1a565b9350506020610ece86828701610e44565b9250506040610edf86828701610e05565b9150509250925092565b600060208284031215610efb57600080fd5b6000610f0984828501610e44565b91505092915050565b610f1b81611617565b82525050565b610f2a81611605565b82525050565b610f3981611629565b82525050565b6000610f4a826114fd565b610f548185611513565b9350610f6481856020860161166e565b610f6d816117d8565b840191505092915050565b6000610f85604483611513565b91507f546869732072657175657374206e65656473206d6f726520617070726f76616c60008301527f2062616c616e636573206265666f72652069742063616e2062652066696e616c60208301527f697a6564000000000000000000000000000000000000000000000000000000006040830152606082019050919050565b6000611011601483611513565b91507f4661696c656420746f2073656e642045746865720000000000000000000000006000830152602082019050919050565b6000611051602283611513565b91507f41206d696e696d756d20636f6e747269627574696f6e2069732072657175697260008301527f65640000000000000000000000000000000000000000000000000000000000006020830152604082019050919050565b60006110b7602783611513565b91507f5468697320726571756573742068617320616c7265616479206265656e20666960008301527f6e616c697a6564000000000000000000000000000000000000000000000000006020830152604082019050919050565b600061111d602e83611513565b91507f596f75206861766520616c726561647920766f74656420746f20617070726f7660008301527f65207468697320726571756573740000000000000000000000000000000000006020830152604082019050919050565b6000611183600083611508565b9150600082019050919050565b600061119d603083611513565b91507f4f6e6c79207468652063616d706169676e206d616e616765722063616e20636160008301527f6c6c20746869732066756e6374696f6e000000000000000000000000000000006020830152604082019050919050565b6000611203603883611513565b91507f4f6e6c7920636f6e7472696275746f72732063616e20617070726f766520612060008301527f7370656369666963207061796d656e74207265717565737400000000000000006020830152604082019050919050565b61126581611655565b82525050565b600061127682611176565b9150819050919050565b60006020820190506112956000830184610f21565b92915050565b60006020820190506112b06000830184610f30565b92915050565b600060208201905081810360008301526112d08184610f3f565b905092915050565b600060c08201905081810360008301526112f28189610f3f565b9050611301602083018861125c565b61130e6040830187610f12565b61131b6060830186610f30565b611328608083018561125c565b61133560a083018461125c565b979650505050505050565b6000602082019050818103600083015261135981610f78565b9050919050565b6000602082019050818103600083015261137981611004565b9050919050565b6000602082019050818103600083015261139981611044565b9050919050565b600060208201905081810360008301526113b9816110aa565b9050919050565b600060208201905081810360008301526113d981611110565b9050919050565b600060208201905081810360008301526113f981611190565b9050919050565b60006020820190508181036000830152611419816111f6565b9050919050565b6000602082019050611435600083018461125c565b92915050565b600060c082019050611450600083018961125c565b61145d602083018861125c565b61146a604083018761125c565b611477606083018661125c565b6114846080830185610f21565b61149160a083018461125c565b979650505050505050565b6000604051905081810181811067ffffffffffffffff821117156114c3576114c26117a9565b5b8060405250919050565b600067ffffffffffffffff8211156114e8576114e76117a9565b5b601f19601f8301169050602081019050919050565b600081519050919050565b600081905092915050565b600082825260208201905092915050565b600061152f82611655565b915061153a83611655565b9250827fffffffffffffffffffffffffffffffffffffffffffffffffffffffffffffffff0382111561156f5761156e61171c565b5b828201905092915050565b600061158582611655565b915061159083611655565b9250826115a05761159f61174b565b5b828204905092915050565b60006115b682611655565b91506115c183611655565b9250817fffffffffffffffffffffffffffffffffffffffffffffffffffffffffffffffff04831182151516156115fa576115f961171c565b5b828202905092915050565b600061161082611635565b9050919050565b600061162282611635565b9050919050565b60008115159050919050565b600073ffffffffffffffffffffffffffffffffffffffff82169050919050565b6000819050919050565b82818337600083830152505050565b60005b8381101561168c578082015181840152602081019050611671565b8381111561169b576000848401525b50505050565b600060028204905060018216806116b957607f821691505b602082108114156116cd576116cc61177a565b5b50919050565b60006116de82611655565b91507fffffffffffffffffffffffffffffffffffffffffffffffffffffffffffffffff8214156117115761171061171c565b5b600182019050919050565b7f4e487b7100000000000000000000000000000000000000000000000000000000600052601160045260246000fd5b7f4e487b7100000000000000000000000000000000000000000000000000000000600052601260045260246000fd5b7f4e487b7100000000000000000000000000000000000000000000000000000000600052602260045260246000fd5b7f4e487b7100000000000000000000000000000000000000000000000000000000600052604160045260246000fd5b6000601f19601f8301169050919050565b6117f281611605565b81146117fd57600080fd5b50565b61180981611617565b811461181457600080fd5b50565b61182081611655565b811461182b57600080fd5b5056fea26469706673582212201693f21d1397af6c2d5024c9fd1e252b31415b6d9c8ccb9002e49134069bf52a64736f6c63430008000033",
    "linkReferences": {},
    "deployedLinkReferences": {}
}